:100000000C943B010C946C010C946C010C946C01ED
:100010000C946C010C946C010C946C010C946C01AC
:100020000C946C010C946C010C946C010C946C019C
:100030000C946C010C946C010C946C010C946C018C
:100040000C946C010C946C010C946C010C946C017C
:100050000C946C010C946C010C946C010C94B6041F
:100060000C946C010C9480040C9456040C946C0158
:100070000C946C010C946C010C946C010C946C014C
:100080000C946C010C946C010C946C010C946C013C
:100090000C946C010C946C010C946C010C946C012C
:1000A0000C946C010C946C010C946C010C946C011C
:1000B0000C946C010C946C010C946C010C946C010C
:1000C0000C946C010C946C010C946C010C946C01FC
:1000D0000C946C010C946C010C946C010C946C01EC
:1000E0000C946C010C94B6030C94F1020C9408036C
:1000F0000C946E010C94D7020C9416030C942803F4
:100100000C94E9020C9402030C94F8020C94B703CB
:100110000C9404020C9445050C9410030C94FE02FC
:100120000C940C030C941E030C94ED020C941A0313
:100130000C9451020C94AA010C94D2020C94500419
:100140000C9424030C94F5020C94BE010C949B01B6
:100150000C94CC0100002100240027002A002D006F
:100160003000330001010000040107010A01000012
:100170002200250028002B002E003100340002014F
:100180000000050108010B0100000A0B02090C0D1B
:100190000E0807030401000000000000000000003A
:1001A000000000000000000000000000000000004F
:1001B000000000001211100000000000000000000C
:1001C000000000000000000000000000000000002F
:1001D00020002300260029002C002F0032000001FF
:1001E00000000301060109010505050507050808CA
:1001F0000808020202020A0A0808040404040101B1
:1002000001010101010103030303030303030407C5
:1002100007070C0C0C0C0C0C0C0C0202020206065C
:100220000606060606060B0B0B0B0B0B0B0B01024F
:1002300010202008081020401020408002010201F8
:1002400008040201010204081020408080402010B0
:100250000804020180040201804020100804020109
:100260000804020101020408102040800102040871
:1002700010204080450511241FBECFEFD1E2DEBF24
:10028000CDBF00E00CBF12E0A0E0B2E0EEE4F2E18E
:1002900000E00BBF02C007900D92AA32B107D9F758
:1002A00022E0AAE2B2E001C01D92AA3EB207E1F745
:1002B00011E0CBE3D1E000E006C021970109802FD7
:1002C000FE010E941D09CA33D10780E00807A9F783
:1002D0000E9464060C9425090C940000AF92BF9212
:1002E000CF92DF92EF92FF920F931F93CF93DF9302
:1002F0006C017B018B01040F151FEB015E01AE1831
:10030000BF08C017D10759F06991D601ED91FC9152
:100310000190F081E02DC6011995892B79F7C5016F
:10032000DF91CF911F910F91FF90EF90DF90CF90D1
:10033000BF90AF900895FC01538D448D252F30E080
:10034000842F90E0821B930B541710F0CF960895E2
:1003500001970895FC01918D828D981761F0A28D0F
:10036000AE0FBF2FB11D5D968C91928D9F5F9F73D5
:10037000928F90E008958FEF9FEF0895FC01918D8B
:10038000828D981731F0828DE80FF11D858D90E0F8
:1003900008958FEF9FEF0895FC01918D228D892F95
:1003A00090E0805C9F4F821B91098F73992708957D
:1003B00085E392E00E94CC0121E0892B09F420E042
:1003C000822F0895FC01A48DA80FB92FB11DA35A47
:1003D000BF4F2C91848D90E001968F739927848F65
:1003E000A689B7892C93A089B1898C918370806488
:1003F0008C93938D848D981306C00288F389E02D29
:1004000080818F7D80830895EF92FF920F931F93D9
:10041000CF93DF93EC0181E0888F9B8D8C8D9813B7
:100420001AC0E889F989808185FF15C09FB7F894C3
:10043000EE89FF896083E889F9898081837080640F
:1004400080839FBF81E090E0DF91CF911F910F915A
:10045000FF90EF900895F62E0B8D10E00F5F1F4F69
:100460000F731127E02E8C8D8E110CC00FB607FC78
:10047000FACFE889F989808185FFF5CFCE010E9406
:10048000E201F1CFEB8DEC0FFD2FF11DE35AFF4F91
:10049000F0829FB7F8940B8FEA89FB898081806294
:1004A000CFCFCF93DF93EC01888D8823B9F0AA8951
:1004B000BB89E889F9898C9185FD03C0808186FD1F
:1004C0000DC00FB607FCF7CF8C9185FFF2CF80816E
:1004D00085FFEDCFCE010E94E201E9CFDF91CF9100
:1004E000089580E090E0892B29F00E94D8018111C5
:1004F0000E94000080E090E0892B49F080E090E0CD
:10050000892B29F00E94000081110E94000080E0E8
:1005100090E0892B49F080E090E0892B29F00E943F
:10052000000081110E94000080E090E0892B49F0DA
:1005300080E090E0892B29F00E94000081110C944A
:1005400000000895282F30E0F901E857FE4F9491FC
:10055000F901E25DFD4F449128513E4FF90124918C
:10056000222309F435C0992311F191509231F8F406
:10057000E92FF0E08827E054FD4F8F4F0C941D09C0
:10058000F102F502D202E902ED02D702F802FE0200
:10059000020308030C03100316031A03D7021E03F9
:1005A00024032803809180008F7780938000E22FBE
:1005B000F0E0EE0FFF1FE259FE4FA591B4918FB707
:1005C000F894EC91611148C040954E234C938FBF35
:1005D0000895809180008F7DE8CF80918000877F93
:1005E000E4CF84B58F7784BDE2CF84B58F7DFBCF18
:1005F0008091B0008F778093B000D9CF8091B00008
:100600008F7DF9CF809190008F7780939000CFCF2E
:10061000809190008F7DF9CF80919000877FF5CFFA
:100620008091A0008F778093A000C1CF8091A0001F
:100630008F7DF9CF8091A000877FF5CF8091200139
:100640008F7780932001B3CF809120018F7DF9CFE8
:1006500080912001877FF5CF4E2BB8CFCF93DF93CA
:1006600090E0FC01E25DFD4F249188519E4FFC011A
:1006700084918823D1F090E0880F991FFC01EC5AF7
:10068000FE4FA591B491FC01E259FE4FC591D49162
:1006900061110EC09FB7F8948C91E22FE0958E23E4
:1006A0008C932881E223E8839FBFDF91CF91089547
:1006B0008FB7F894EC91E22BEC938FBFF6CF3FB756
:1006C000F89480912F0290913002A0913102B09164
:1006D000320226B5A89B05C02F3F19F00196A11D37
:1006E000B11D3FBFBA2FA92F982F8827BC01CD017C
:1006F000620F711D811D911D42E0660F771F881FDB
:10070000991F4A95D1F708958F929F92AF92BF9209
:10071000CF92DF92EF92FF924B015C010E945F0348
:100720006B017C010E945F036C197D098E099F0992
:10073000683E734081059105A8F321E0821A910873
:10074000A108B10888EEC80E83E0D81EE11CF11C98
:1007500081149104A104B10429F7FF90EF90DF9078
:10076000CF90BF90AF909F908F900895089590E0A4
:1007700080E00895CF93DF93EC0160E08E810E94CA
:10078000A20261E08E810E94A20260E08E810E943E
:10079000A2028BE891E00197F1F7DF91CF910895E4
:1007A000CF92DF92EF92FF920F931F93CF93DF933D
:1007B0006C017C0187E0E80EF11CD0E0C0E0062F60
:1007C00010E0B8010C2E02C0759567950A94E2F707
:1007D0006170F70181917F010E94A2022196C430CD
:1007E000D10579F7C601DF91CF911F910F91FF904D
:1007F000EF90DF90CF900C94BA03CF92DF92EF92FC
:10080000FF920F931F93CF93DF93EC01F62E642F8B
:100810008C810E94A2028D818F3F19F060E00E94BE
:10082000A2020F2D10E08F8584FF25C06E0187E0A6
:10083000C80ED11CF12CE12CB8010E2C02C075950C
:1008400067950A94E2F76170F60181916F010E9449
:10085000A202FFEFEF1AFF0A88E0E816F10461F741
:10086000CE01DF91CF911F910F91FF90EF90DF901C
:10087000CF900C94BA03B80184E0759567958A957A
:10088000E1F7CE010E94D0036F2DCE01DF91CF9111
:100890001F910F91FF90EF90DF90CF900C94D003B9
:1008A00041E00E94FD0381E090E008951F920F92C5
:1008B0000FB60F9211240BB60F922F933F934F93C5
:1008C0005F936F937F938F939F93AF93BF93EF93B8
:1008D000FF9385E392E00E94E201FF91EF91BF91C7
:1008E000AF919F918F917F916F915F914F913F91C8
:1008F0002F910F900BBE0F900FBE0F901F90189569
:100900001F920F920FB60F9211240BB60F922F93D6
:100910008F939F93EF93FF93E0914502F0914602EE
:100920008081E0914B02F0914C0282FD1DC09081CC
:1009300080914E028F5F8F7320914F02821741F09A
:10094000E0914E02F0E0EB5CFD4F958F80934E02FC
:10095000FF91EF919F918F912F910F900BBE0F9070
:100960000FBE0F901F9018958081F2CF1F920F92AB
:100970000FB60F9211242F933F938F939F93AF93B2
:10098000BF9380912B0290912C02A0912D02B091E7
:100990002E0230912A0223E0230F2D3758F50196BD
:1009A000A11DB11D20932A0280932B0290932C024B
:1009B000A0932D02B0932E0280912F0290913002CD
:1009C000A0913102B09132020196A11DB11D809318
:1009D0002F0290933002A0933102B0933202BF9164
:1009E000AF919F918F913F912F910F900FBE0F90DC
:1009F0001F90189526E8230F0296A11DB11DD2CF96
:100A0000CF92DF92EF92FF920F931F93E82FF92F6F
:100A100005C0015011092109310961F19081962326
:100A20009417B9F305C0015011092109310911F1D9
:100A3000908196239413F7CFC12CD12CE12CF12C6B
:100A40000AC08FEFC81AD80AE80AF80A0C151D0563
:100A50002E053F0579F080818623841791F36C2D54
:100A60007D2D8E2D9F2D1F910F91FF90EF90DF9088
:100A7000CF90089560E070E080E090E01F910F91CA
:100A8000FF90EF90DF90CF900895CF93DF93109277
:100A900038021092370288EE93E0A0E0B0E0809335
:100AA000390290933A02A0933B02B0933C0284E057
:100AB00092E0909336028093350285EC90E090931B
:100AC00042028093410284EC90E090934402809330
:100AD000430280EC90E0909346028093450281ECC3
:100AE00090E0909348028093470282EC90E09093CC
:100AF0004A028093490286EC90E090934C028093E6
:100B00004B0210924E0210924F021092500210921D
:100B100051021092D5021092D40286E192E0909395
:100B2000D3028093D20287E08093D6028FEF809326
:100B3000D70286E08093D80285E08093D90284E0D2
:100B40008093DA0283E08093DB0282E08093DC0210
:100B50001092DD021092DE021092DF021092E0028B
:100B60001092E10281E08093E5021092E60280E4B7
:100B70008093E70280E18093E80280E58093E902B8
:100B800061E087E00E942E038091D7028F3F19F029
:100B900061E00E942E0361E08091D8020E942E0342
:100BA000C2EDD2E09E01225D32408091E10284FDDF
:100BB0000BC084E090E021962817390744F461E0E7
:100BC0008E810E942E03EECF88E090E0F4CF8BE37D
:100BD0009DE00197F1F760E08091D6020E94A202A9
:100BE00060E08091D8020E94A2028091D7028F3FDC
:100BF00019F060E00E94A2026091E10264FD45C02C
:100C000063E082ED92E00E94D003CBE4D6E4CE0113
:100C10000197F1F763E082ED92E00E94D003219703
:100C2000F1F763E082ED92E00E94D00383E592E069
:100C30000197F1F762E082ED92E00E94D0036091AB
:100C4000E102606240E082ED92E00E94FD0384E0F8
:100C50008093E20240E06CE082ED92E00E94FD03AE
:100C600040E061E082ED92E00E94FD038BE39FE1B2
:100C70000197F1F782E08093E30240E066E082EDC5
:100C800092E0DF91CF910C94FD03606240E082ED31
:100C900092E00E94FD038BE496E40197F1F76091E6
:100CA000E102606240E082ED92E00E94FD0383E594
:100CB00092E00197F1F76091E102606240E082ED1D
:100CC00092E00E94FD03BBCFCF93DF93CDB7DEB799
:100CD000A1970FB6F894DEBF0FBECDBF789484B550
:100CE000826084BD84B5816084BD85B5826085BD28
:100CF00085B5816085BD80916E00816080936E00B6
:100D000010928100809181008260809381008091A7
:100D10008100816080938100809180008160809358
:100D200080008091B10084608093B1008091B00018
:100D300081608093B00080919100826080939100E7
:100D400080919100816080939100809190008160FA
:100D5000809390008091A10082608093A100809197
:100D6000A10081608093A1008091A00081608093A8
:100D7000A000809121018260809321018091210156
:100D80008160809321018091200181608093200106
:100D900080917A00846080937A0080917A008260EA
:100DA00080937A0080917A00816080937A008091AC
:100DB0007A00806880937A001092C100E091450229
:100DC000F091460282E08083E0914102F09142027C
:100DD0001082E0914302F09144028FEC80831092E4
:100DE0004D02E0914902F0914A0286E08083E09151
:100DF0004702F0914802808180618083E091470240
:100E0000F0914802808188608083E0914702F091F0
:100E10004802808180688083E0914702F091480217
:100E200080818F7D808361E088E00E942E0360E0F6
:100E300089E00E942E0397E3A92E92E0B92E21EFBC
:100E4000822E21E0922E3AE0432E512C612C712CFF
:100E500061E088E00E94A20261E070E080E090E042
:100E60000E94840360E088E00E94A202F501649180
:100E7000F4018491E82FF0E0EE0FFF1FE253FE4FE4
:100E80008591949100E412E42FE030E0462F0E9417
:100E90000005611571058105910529F06F5F7F4F90
:100EA0008F4F9F4F9F70072E000C880B990B0E944D
:100EB0006F082AE939E949E652E40E94C5070E9411
:100EC000370870933402609333024AE050E06EE1D9
:100ED00072E082ED92E00E946E01C0903302D090E9
:100EE00034020D2C000CEE08FF08F7FE38C041E07C
:100EF0006DE282ED92E00E94FD0322273327A901D3
:100F00002C193D094E095F0919A2CE0181967C0179
:100F1000CA01B901A30192010E94FB08605DF701BB
:100F200062937F01211531054105510589F7E114CF
:100F3000F10461F001900020E9F73197AF014E19FB
:100F40005F09B70182ED92E00E946E0164E670E0F5
:100F500080E090E00E9484030E94710279CFA70193
:100F6000960119A2CE0181967C01CA01B901A301A3
:100F700092010E94FB08605DF70162937F012115D9
:100F800031054105510589F7D2CF0E94D9070C944C
:100F9000C1080E94BA0858F00E94B30840F029F432
:100FA0005F3F29F00C94AA0851110C94F5080C9499
:100FB000B0080E94D20868F39923B1F3552391F346
:100FC000951B550BBB27AA2762177307840738F0B8
:100FD0009F5F5F4F220F331F441FAA1FA9F335D015
:100FE0000E2E3AF0E0E832D091505040E695001CC9
:100FF000CAF72BD0FE2F29D0660F771F881FBB1F83
:10100000261737074807AB07B0E809F0BB0B802D60
:10101000BF01FF2793585F4F3AF09E3F510578F08C
:101020000C94AA080C94F5085F3FE4F3983ED4F3BF
:10103000869577956795B795F7959F5FC9F7880F60
:10104000911D9695879597F90895E1E0660F771FB2
:10105000881FBB1F621773078407BA0720F0621B43
:10106000730B840BBA0BEE1F88F7E09508950E946E
:101070003E086894B1110C94F50808950E94DA08AE
:1010800088F09F5798F0B92F9927B751B0F0E1F049
:10109000660F771F881F991F1AF0BA95C9F714C0F9
:1010A000B13091F00E94F408B1E008950C94F40876
:1010B000672F782F8827B85F39F0B93FCCF3869532
:1010C00077956795B395D9F73EF49095809570958F
:1010D00061957F4F8F4F9F4F0895E89409C097FB0C
:1010E0003EF490958095709561957F4F8F4F9F4FFF
:1010F0009923A9F0F92F96E9BB279395F695879543
:1011000077956795B795F111F8CFFAF4BB0F11F405
:1011100060FF1BC06F5F7F4F8F4F9F4F16C08823AC
:1011200011F096E911C0772321F09EE8872F762FE2
:1011300005C0662371F096E8862F70E060E02AF023
:101140009A95660F771F881FDAF7880F969587950F
:1011500097F9089597F99F6780E870E060E0089537
:101160009FEF80EC089500240A94161617061806BF
:101170000906089500240A9412161306140605069B
:101180000895092E0394000C11F4882352F0BB0F2C
:1011900040F4BF2B11F460FF04C06F5F7F4F8F4F8F
:1011A0009F4F089557FD9058440F551F59F05F3FCA
:1011B00071F04795880F97FB991F61F09F3F79F079
:1011C00087950895121613061406551FF2CF4695FB
:1011D000F1DF08C0161617061806991FF1CF86957D
:1011E0007105610508940895E894BB276627772761
:1011F000CB0197F90895A1E21A2EAA1BBB1BFD0192
:101200000DC0AA1FBB1FEE1FFF1FA217B307E407E5
:10121000F50720F0A21BB30BE40BF50B661F771F3D
:10122000881F991F1A9469F760957095809590951D
:101230009B01AC01BD01CF010895EE0FFF1F881F78
:0E1240008BBF0790F691E02D1994F894FFCF24
:10124E000000000004026E019B015102CC01AA01B4
:10125E00BE010000000050046E01B703B6034469DE
:0A126E007374616E63696120000073
:00000001FF
